:020000040800F2
:1000000008040020490100085101000853010008BC
:1000100055010008570100085901000800000000C0
:100020000000000000000000000000005B0100086C
:100030005D010008000000005F0100086101000888
:100040006301000863010008630100086301000800
:1000500063010008630100086301000863010008F0
:1000600063010008630100086301000863010008E0
:1000700063010008630100086301000863010008D0
:1000800063010008630100086301000863010008C0
:1000900063010008630100086301000863010008B0
:1000A00063010008630100086301000863010008A0
:1000B0006301000863010008630100086301000890
:1000C0006301000863010008630100086301000880
:1000D0006301000863010008630100086301000870
:1000E000ED010008630100086301000863010008D6
:1000F0006301000863010008630100086301000850
:10010000630100086301000863010008630100083F
:10011000630100086301000863010008630100082F
:10012000630100086301000863010008630100081F
:10013000DFF810D000F02CF8004800475D080008F8
:10014000AFF30080080400200648804706480047B7
:10015000FEE7FEE7FEE7FEE7FEE7FEE7FEE7FEE777
:10016000FEE7FEE75506000831010008D2B201E0C3
:1001700000F8012B491EFBD270470022F6E710B5AC
:1001800013460A4604461946FFF7F0FF204610BD05
:10019000064C074D06E0E06840F0010394E80700D4
:1001A00098471034AC42F6D3FFF7C6FF6409000845
:1001B0008409000800B502464FF47A7302E018463D
:1001C00000F004F8521E92B2F9D200BD00EBC0005C
:1001D000C1004FF0E0204161052101610169C903BF
:1001E000FCD5016921F001010161704710B5094892
:1001F000016841F4806101600A20FFF7DBFF0648D7
:100200000068400504D5BDE81040012000F032B977
:1002100010BD000014040140081C014010B5154C2D
:10022000206820F480602060206840F40060206036
:100230000A20FFF7CBFF206820F4006020600A202E
:10024000FFF7C4FF206840F4806020600A20FFF7B9
:10025000BDFF206820F4806020600A20FFF7B6FF11
:10026000206840F400602060BDE810400A20FFF7DD
:10027000ADBF00000C0C01400948816941F0080144
:1002800081610848016841F44C510160016821F422
:1002900008410160016841F4884101607047000035
:1002A00000100240040C014010B50E4C206820F4F0
:1002B00080602060206840F4006020600A20FFF722
:1002C00085FF206840F4806020600A20FFF77EFFF1
:1002D000206820F480602060BDE810400A20FFF70D
:1002E00075BF00000C0C01402DE9F04100240025F1
:1002F000124F3E1D306820F4806030600A20FFF706
:1003000065FF306840F4806030600A20FFF75EFFD0
:100310006006040E3868000501D544F00104306819
:1003200020F4806030600A20FFF750FF6D1CEDB2B2
:10033000082DDFD32046BDE8F0810000080C014005
:1003400070B505460024174E306820F48060306098
:10035000306820F4006030600A20FFF737FF28067D
:1003600004D5306840F40060306003E0306820F469
:10037000006030600A20FFF729FF306840F4806099
:1003800030600A20FFF722FF306820F48060306080
:100390000A20FFF71BFF6806050E641CE4B2082C58
:1003A000D2D370BD0C0C014010B50A4C206840F44B
:1003B00080602060206840F4006020600A20FFF721
:1003C00005FF206820F400602060BDE810400A208E
:1003D000FFF7FCBE0C0C014010B50A4C206840F43D
:1003E00080602060206820F4006020600A20FFF711
:1003F000EDFE206840F400602060BDE810400A2057
:10040000FFF7E4BE0C0C014070B5114C206820F4DD
:1004100080602060206840F4006020600A20FFF7C0
:10042000D5FE206840F4806020600A20FFF7CEFEF1
:10043000201F006800F40065206820F480602060C0
:100440000A20FFF7C3FE0DB1012070BD002070BD72
:100450000C0C014002490A6802430A607047000020
:100460000C08014002490A6882430A607047000094
:100470000C08014003490968014201D1FFF7EABFB6
:10048000FFF7F0BF08080140FFF7F6BE10B50446BD
:10049000FFF78AFFA020FFF753FFFFF7B5FF2046C5
:1004A000FFF74EFFFFF7B0FFFFF77EFFA120FFF73A
:1004B00047FFFFF7A9FFFFF717FF0446FFF7F4FE1A
:1004C000FFF78AFF204610BD2DE9F04104460D4696
:1004D0001646FFF769FFA020FFF732FFFFF794FFF2
:1004E0002046FFF72DFFFFF78FFFFFF75DFFA120ED
:1004F000FFF726FFFFF788FF0024771E0BE0FFF7CA
:10050000F3FE2855BC4202DAFFF788FE01E0FFF750
:10051000CBFE641CE4B2B442F1D3BDE8F041FFF776
:100520005BBF70B505460C46FFF73EFFA020FFF706
:1005300007FFFFF769FF58B92846FFF701FFFFF7EC
:1005400063FF2046FFF7FCFEFFF75EFFFFF744FF67
:10055000BDE870400520FFF72DBE70B504460D467E
:100560001646FFF721FFA020FFF7EAFEFFF74CFF3A
:1005700088B92046FFF7E4FEFFF746FF002406E0B7
:10058000285DFFF7DDFEFFF73FFF641CE4B2B442D5
:10059000F6D3FFF721FFBDE870400520FFF70ABE44
:1005A000AFF300800CB50022019200922748016849
:1005B00041F4803101604FF4A063016801F400311F
:1005C00000910199491C0191009911B90199994231
:1005D000F3D10168890302D50121009100E0009266
:1005E0000099012930D11A490A6842F010020A60C4
:1005F0000A6822F007020A600A6842F002020A60F2
:100600004168416041684160416841F480614160F6
:10061000416821F47C114160416841F4E811416076
:10062000016841F08071016001688901FCD5416871
:1006300021F003014160416841F0020141604168DD
:10064000C1F381010229FAD10CBD00000010024063
:100650000020024010B50F48016841F0010101601F
:1006600041680D4A1140416001680C4A1140016027
:10067000016821F480210160416821F4FE0141609C
:100680004FF41F018160FFF78BFF05494FF00060B9
:10069000086010BD001002400000FFF8FFFFF6FEEA
:1006A00008ED00E01C48816941F004018161816925
:1006B00041F4804181611948016841F030010160D5
:1006C000016841F080010160016821F04001016092
:1006D000016821F440710160016821F4006101604A
:1006E000016841F4806101600D4940F27120088089
:1006F000081D018842F20C0211430180018821F497
:1007000080510180018821F480610180001D0188F1
:1007100021F440510180704700100240040801405C
:100720000838014003490A881206FCD50149091D11
:1007300008807047003801400FB4054B10B503A97D
:10074000044A029800F017F810BC5DF814FB000092
:100750004D0800080000002002E008C8121F08C170
:10076000002AFAD170477047002001E001C1121F32
:10077000002AFBD170472DE9F84F994692468846EA
:100780000546002706E025280AD051464A469047EC
:100790006D1C7F1C28780028F5D13846BDE8F88FFD
:1007A000002315F8011F18462E2915D115F8011F31
:1007B00004232A290DD06FF02F022978A1F13004EB
:1007C000092C09D800EB800002EB400008446D1CA6
:1007D000F3E758F8040B6D1C2A78002ADDD0632A51
:1007E00007D0732A0FD0104651464A4690477F1CC7
:1007F0002AE018F8042B8DF8002000218DF8011054
:100800006E46012103E058F8046B4FF0FF315A07A0
:100810004FF0000401D409E0641C84420BDA8C42DE
:10082000FADB325D002AF7D105E0641C8C42FCDB68
:10083000305D0028F9D1274404E016F8010B514639
:100840004A469047641EF8D26D1CA3E700B50346E4
:10085000D8B2FFF767FF184600BD00009AB0FFF757
:1008600021FFFFF711FE22A0FFF766FF61210020A4
:10087000FFF757FE62210120FFF753FE632102209C
:10088000FFF74FFE0020FFF701FE04460120FFF7AF
:10089000FDFD05460220FFF7F9FD03462A462146E5
:1008A0001BA0FFF749FF062222A10020FFF755FEFB
:1008B000642101A8FFF761FC062201A90020FFF7CF
:1008C00003FE01A91DA0FFF737FF642101A8FFF770
:1008D00054FC15221DA10020FFF73FFE152201A99F
:1008E0000020FFF7F1FD01A914A0FFF725FFFEE7A7
:1008F000C9D0B9E8B9C8493243C8EDBCFEC4A3C4E5
:10090000E2CAB5D1E9BFAACABC2E2E2E0A00000049
:100910006279746531203D20256309206279746510
:1009200032203D20256309206279746533203D2003
:1009300025630A003132333435360000627566664D
:100940006572203D2025730A0000000031323334E7
:100950003536373839306162636465666768696A5D
:100960006B00000084090008000000200400000063
:10097000580700088809000804000020040400004B
:080980006807000800000000F8
:0400000508000131BD
:00000001FF
